{
  "contractName": "Chaos",
  "abi": [
    {
      "constant": true,
      "inputs": [
        {
          "name": "_operator",
          "type": "address"
        },
        {
          "name": "_role",
          "type": "string"
        }
      ],
      "name": "checkRole",
      "outputs": [],
      "payable": false,
      "stateMutability": "view",
      "type": "function"
    },
    {
      "constant": true,
      "inputs": [
        {
          "name": "_operator",
          "type": "address"
        },
        {
          "name": "_role",
          "type": "string"
        }
      ],
      "name": "hasRole",
      "outputs": [
        {
          "name": "",
          "type": "bool"
        }
      ],
      "payable": false,
      "stateMutability": "view",
      "type": "function"
    },
    {
      "constant": true,
      "inputs": [],
      "name": "ROLE_MACHINE",
      "outputs": [
        {
          "name": "",
          "type": "string"
        }
      ],
      "payable": false,
      "stateMutability": "view",
      "type": "function"
    },
    {
      "constant": true,
      "inputs": [],
      "name": "ROLE_TOKEN",
      "outputs": [
        {
          "name": "",
          "type": "string"
        }
      ],
      "payable": false,
      "stateMutability": "view",
      "type": "function"
    },
    {
      "constant": true,
      "inputs": [
        {
          "name": "",
          "type": "uint256"
        }
      ],
      "name": "tracks",
      "outputs": [
        {
          "name": "uploader",
          "type": "address"
        },
        {
          "name": "cid",
          "type": "string"
        },
        {
          "name": "block",
          "type": "uint256"
        }
      ],
      "payable": false,
      "stateMutability": "view",
      "type": "function"
    },
    {
      "constant": true,
      "inputs": [],
      "name": "ROLE_ADMIN",
      "outputs": [
        {
          "name": "",
          "type": "string"
        }
      ],
      "payable": false,
      "stateMutability": "view",
      "type": "function"
    },
    {
      "inputs": [],
      "payable": false,
      "stateMutability": "nonpayable",
      "type": "constructor"
    },
    {
      "anonymous": false,
      "inputs": [
        {
          "indexed": false,
          "name": "oldAddress",
          "type": "address"
        },
        {
          "indexed": false,
          "name": "newAddress",
          "type": "address"
        }
      ],
      "name": "AdminUpdated",
      "type": "event"
    },
    {
      "anonymous": false,
      "inputs": [
        {
          "indexed": true,
          "name": "machine",
          "type": "address"
        }
      ],
      "name": "MachineGranted",
      "type": "event"
    },
    {
      "anonymous": false,
      "inputs": [
        {
          "indexed": true,
          "name": "machine",
          "type": "address"
        }
      ],
      "name": "MachineRevoked",
      "type": "event"
    },
    {
      "anonymous": false,
      "inputs": [
        {
          "indexed": true,
          "name": "token",
          "type": "address"
        },
        {
          "indexed": true,
          "name": "machine",
          "type": "address"
        }
      ],
      "name": "TokenGranted",
      "type": "event"
    },
    {
      "anonymous": false,
      "inputs": [
        {
          "indexed": true,
          "name": "token",
          "type": "address"
        }
      ],
      "name": "TokenRevoked",
      "type": "event"
    },
    {
      "anonymous": false,
      "inputs": [
        {
          "indexed": false,
          "name": "cid",
          "type": "string"
        },
        {
          "indexed": true,
          "name": "uploader",
          "type": "address"
        }
      ],
      "name": "TrackAdded",
      "type": "event"
    },
    {
      "anonymous": false,
      "inputs": [
        {
          "indexed": false,
          "name": "cid",
          "type": "string"
        }
      ],
      "name": "TrackRemoved",
      "type": "event"
    },
    {
      "anonymous": false,
      "inputs": [
        {
          "indexed": true,
          "name": "operator",
          "type": "address"
        },
        {
          "indexed": false,
          "name": "role",
          "type": "string"
        }
      ],
      "name": "RoleAdded",
      "type": "event"
    },
    {
      "anonymous": false,
      "inputs": [
        {
          "indexed": true,
          "name": "operator",
          "type": "address"
        },
        {
          "indexed": false,
          "name": "role",
          "type": "string"
        }
      ],
      "name": "RoleRemoved",
      "type": "event"
    },
    {
      "constant": false,
      "inputs": [
        {
          "name": "_new",
          "type": "address"
        }
      ],
      "name": "updateAdmin",
      "outputs": [],
      "payable": false,
      "stateMutability": "nonpayable",
      "type": "function"
    },
    {
      "constant": false,
      "inputs": [
        {
          "name": "_machine",
          "type": "address"
        }
      ],
      "name": "grantMachine",
      "outputs": [],
      "payable": false,
      "stateMutability": "nonpayable",
      "type": "function"
    },
    {
      "constant": false,
      "inputs": [
        {
          "name": "_machine",
          "type": "address"
        }
      ],
      "name": "revokeMachine",
      "outputs": [],
      "payable": false,
      "stateMutability": "nonpayable",
      "type": "function"
    },
    {
      "constant": false,
      "inputs": [
        {
          "name": "_token",
          "type": "address"
        }
      ],
      "name": "grantToken",
      "outputs": [],
      "payable": false,
      "stateMutability": "nonpayable",
      "type": "function"
    },
    {
      "constant": false,
      "inputs": [
        {
          "name": "_token",
          "type": "address"
        }
      ],
      "name": "revokeToken",
      "outputs": [],
      "payable": false,
      "stateMutability": "nonpayable",
      "type": "function"
    },
    {
      "constant": false,
      "inputs": [
        {
          "name": "_hash",
          "type": "bytes32"
        },
        {
          "name": "_sig",
          "type": "bytes"
        },
        {
          "name": "_cid",
          "type": "string"
        }
      ],
      "name": "addTrack",
      "outputs": [],
      "payable": false,
      "stateMutability": "nonpayable",
      "type": "function"
    },
    {
      "constant": false,
      "inputs": [
        {
          "name": "_index",
          "type": "uint256"
        }
      ],
      "name": "removeTrack",
      "outputs": [],
      "payable": false,
      "stateMutability": "nonpayable",
      "type": "function"
    },
    {
      "constant": true,
      "inputs": [],
      "name": "shuffle",
      "outputs": [
        {
          "name": "",
          "type": "string"
        }
      ],
      "payable": false,
      "stateMutability": "view",
      "type": "function"
    }
  ],
  "bytecode": "0x60806040523480156200001157600080fd5b5062000062336040805190810160405280600581526020017f61646d696e00000000000000000000000000000000000000000000000000000081525062000068640100000000026401000000009004565b6200020f565b620000f7826000836040518082805190602001908083835b602083101515620000a7578051825260208201915060208101905060208303925062000080565b6001836020036101000a0380198251168184511680821785525050505050509050019150509081526020016040518091039020620001b1640100000000026200195d179091906401000000009004565b8173ffffffffffffffffffffffffffffffffffffffff167fbfec83d64eaa953f2708271a023ab9ee82057f8f3578d548c1a4ba0b5b700489826040518080602001828103825283818151815260200191508051906020019080838360005b838110156200017257808201518184015260208101905062000155565b50505050905090810190601f168015620001a05780820380516001836020036101000a031916815260200191505b509250505060405180910390a25050565b60018260000160008373ffffffffffffffffffffffffffffffffffffffff1673ffffffffffffffffffffffffffffffffffffffff16815260200190815260200160002060006101000a81548160ff0219169083151502179055505050565b611beb806200021f6000396000f3006080604052600436106100d0576000357c0100000000000000000000000000000000000000000000000000000000900463ffffffff1680630988ca8c146100d5578063217fe6c61461015e57806321b2d55d146101ff5780632520bf041461028f578063640a74be1461031f57806379d3d547146103dc5780637c9b032a1461041f578063933f4eef146104af5780639850ce08146104f2578063a2e3458614610535578063a93d79e714610615578063ad153c7714610642578063d391014b14610685578063e2f273bd14610715575b600080fd5b3480156100e157600080fd5b5061015c600480360381019080803573ffffffffffffffffffffffffffffffffffffffff169060200190929190803590602001908201803590602001908080601f0160208091040260200160405190810160405280939291908181526020018383808284378201915050505050509192919290505050610758565b005b34801561016a57600080fd5b506101e5600480360381019080803573ffffffffffffffffffffffffffffffffffffffff169060200190929190803590602001908201803590602001908080601f01602080910402602001604051908101604052809392919081815260200183838082843782019150505050505091929192905050506107d9565b604051808215151515815260200191505060405180910390f35b34801561020b57600080fd5b50610214610860565b6040518080602001828103825283818151815260200191508051906020019080838360005b83811015610254578082015181840152602081019050610239565b50505050905090810190601f1680156102815780820380516001836020036101000a031916815260200191505b509250505060405180910390f35b34801561029b57600080fd5b506102a4610899565b6040518080602001828103825283818151815260200191508051906020019080838360005b838110156102e45780820151818401526020810190506102c9565b50505050905090810190601f1680156103115780820380516001836020036101000a031916815260200191505b509250505060405180910390f35b34801561032b57600080fd5b506103da6004803603810190808035600019169060200190929190803590602001908201803590602001908080601f0160208091040260200160405190810160405280939291908181526020018383808284378201915050505050509192919290803590602001908201803590602001908080601f0160208091040260200160405190810160405280939291908181526020018383808284378201915050505050509192919290505050610a00565b005b3480156103e857600080fd5b5061041d600480360381019080803573ffffffffffffffffffffffffffffffffffffffff169060200190929190505050610bec565b005b34801561042b57600080fd5b50610434610c38565b6040518080602001828103825283818151815260200191508051906020019080838360005b83811015610474578082015181840152602081019050610459565b50505050905090810190601f1680156104a15780820380516001836020036101000a031916815260200191505b509250505060405180910390f35b3480156104bb57600080fd5b506104f0600480360381019080803573ffffffffffffffffffffffffffffffffffffffff169060200190929190505050610c71565b005b3480156104fe57600080fd5b50610533600480360381019080803573ffffffffffffffffffffffffffffffffffffffff169060200190929190505050610cbc565b005b34801561054157600080fd5b5061056060048036038101908080359060200190929190505050610d07565b604051808473ffffffffffffffffffffffffffffffffffffffff1673ffffffffffffffffffffffffffffffffffffffff16815260200180602001838152602001828103825284818151815260200191508051906020019080838360005b838110156105d85780820151818401526020810190506105bd565b50505050905090810190601f1680156106055780820380516001836020036101000a031916815260200191505b5094505050505060405180910390f35b34801561062157600080fd5b5061064060048036038101908080359060200190929190505050610df8565b005b34801561064e57600080fd5b50610683600480360381019080803573ffffffffffffffffffffffffffffffffffffffff169060200190929190505050611118565b005b34801561069157600080fd5b5061069a611163565b6040518080602001828103825283818151815260200191508051906020019080838360005b838110156106da5780820151818401526020810190506106bf565b50505050905090810190601f1680156107075780820380516001836020036101000a031916815260200191505b509250505060405180910390f35b34801561072157600080fd5b50610756600480360381019080803573ffffffffffffffffffffffffffffffffffffffff16906020019092919050505061119c565b005b6107d5826000836040518082805190602001908083835b602083101515610794578051825260208201915060208101905060208303925061076f565b6001836020036101000a03801982511681845116808217855250505050505090500191505090815260200160405180910390206111e890919063ffffffff16565b5050565b6000610858836000846040518082805190602001908083835b60208310151561081757805182526020820191506020810190506020830392506107f2565b6001836020036101000a038019825116818451168082178552505050505050905001915050908152602001604051809103902061120190919063ffffffff16565b905092915050565b6040805190810160405280600781526020017f6d616368696e650000000000000000000000000000000000000000000000000081525081565b6060600060018054905060014303406040516020018082600019166000191681526020019150506040516020818303038152906040526040518082805190602001908083835b60208310151561090457805182526020820191506020810190506020830392506108df565b6001836020036101000a03801982511681845116808217855250505050505090500191505060405180910390206001900481151561093e57fe5b06905060018181548110151561095057fe5b90600052602060002090600302016001018054600181600116156101000203166002900480601f0160208091040260200160405190810160405280929190818152602001828054600181600116156101000203166002900480156109f55780601f106109ca576101008083540402835291602001916109f5565b820191906000526020600020905b8154815290600101906020018083116109d857829003601f168201915b505050505091505090565b6000610a1983856000191661125a90919063ffffffff16565b9050610a5a816040805190810160405280600581526020017f746f6b656e000000000000000000000000000000000000000000000000000000815250610758565b60016060604051908101604052803373ffffffffffffffffffffffffffffffffffffffff168152602001848152602001438152509080600181540180825580915050906001820390600052602060002090600302016000909192909190915060008201518160000160006101000a81548173ffffffffffffffffffffffffffffffffffffffff021916908373ffffffffffffffffffffffffffffffffffffffff1602179055506020820151816001019080519060200190610b1c9291906119bb565b5060408201518160020155505050610b3381611352565b3373ffffffffffffffffffffffffffffffffffffffff167f07bf306360af58e0353a9d9f4c81cbd293c6c615b52416a5543a67cb964f328b836040518080602001828103825283818151815260200191508051906020019080838360005b83811015610bac578082015181840152602081019050610b91565b50505050905090810190601f168015610bd95780820380516001836020036101000a031916815260200191505b509250505060405180910390a250505050565b610c2b336040805190810160405280600781526020017f6d616368696e6500000000000000000000000000000000000000000000000000815250610758565b610c3581336113d7565b50565b6040805190810160405280600581526020017f746f6b656e00000000000000000000000000000000000000000000000000000081525081565b610cb0336040805190810160405280600581526020017f61646d696e000000000000000000000000000000000000000000000000000000815250610758565b610cb981611352565b50565b610cfb336040805190810160405280600581526020017f61646d696e000000000000000000000000000000000000000000000000000000815250610758565b610d0481611474565b50565b600181815481101515610d1657fe5b90600052602060002090600302016000915090508060000160009054906101000a900473ffffffffffffffffffffffffffffffffffffffff1690806001018054600181600116156101000203166002900480601f016020809104026020016040519081016040528092919081815260200182805460018160011615610100020316600290048015610de85780601f10610dbd57610100808354040283529160200191610de8565b820191906000526020600020905b815481529060010190602001808311610dcb57829003601f168201915b5050505050908060020154905083565b60606000610e3b336040805190810160405280600581526020017f61646d696e000000000000000000000000000000000000000000000000000000815250610758565b60018080549050118015610e53575060018054905083105b1515610ec7576040517f08c379a000000000000000000000000000000000000000000000000000000000815260040180806020018281038252600d8152602001807f496e76616c696420696e6465780000000000000000000000000000000000000081525060200191505060405180910390fd5b600183815481101515610ed657fe5b90600052602060002090600302016001018054600181600116156101000203166002900480601f016020809104026020016040519081016040528092919081815260200182805460018160011615610100020316600290048015610f7b5780601f10610f5057610100808354040283529160200191610f7b565b820191906000526020600020905b815481529060010190602001808311610f5e57829003601f168201915b50505050509150600180808054905003815481101515610f9757fe5b9060005260206000209060030201905080600184815481101515610fb757fe5b90600052602060002090600302016000820160009054906101000a900473ffffffffffffffffffffffffffffffffffffffff168160000160006101000a81548173ffffffffffffffffffffffffffffffffffffffff021916908373ffffffffffffffffffffffffffffffffffffffff16021790555060018201816001019080546001816001161561010002031660029004611053929190611a3b565b506002820154816002015590505060018054809190600190036110769190611ac2565b507f7b5b1a2eb010f1b15551a3637ca3ecc0de4874b023f4beafe54a15fb3d1c7739826040518080602001828103825283818151815260200191508051906020019080838360005b838110156110d95780820151818401526020810190506110be565b50505050905090810190601f1680156111065780820380516001836020036101000a031916815260200191505b509250505060405180910390a1505050565b611157336040805190810160405280600581526020017f61646d696e000000000000000000000000000000000000000000000000000000815250610758565b611160816114f9565b50565b6040805190810160405280600581526020017f61646d696e00000000000000000000000000000000000000000000000000000081525081565b6111db336040805190810160405280600581526020017f61646d696e000000000000000000000000000000000000000000000000000000815250610758565b6111e5338261157e565b50565b6111f28282611201565b15156111fd57600080fd5b5050565b60008260000160008373ffffffffffffffffffffffffffffffffffffffff1673ffffffffffffffffffffffffffffffffffffffff16815260200190815260200160002060009054906101000a900460ff16905092915050565b600080600080604185511415156112745760009350611349565b6020850151925060408501519150606085015160001a9050601b8160ff16101561129f57601b810190505b601b8160ff16141580156112b75750601c8160ff1614155b156112c55760009350611349565b600186828585604051600081526020016040526040518085600019166000191681526020018460ff1660ff1681526020018360001916600019168152602001826000191660001916815260200194505050505060206040516020810390808403906000865af115801561133c573d6000803e3d6000fd5b5050506020604051035193505b50505092915050565b611391816040805190810160405280600581526020017f746f6b656e000000000000000000000000000000000000000000000000000000815250611697565b8073ffffffffffffffffffffffffffffffffffffffff167f45f62f30e7b8439e0da7d8e560fe39d01238091ce9e789e3d12b514edf98acea60405160405180910390a250565b611416826040805190810160405280600581526020017f746f6b656e0000000000000000000000000000000000000000000000000000008152506117cb565b8073ffffffffffffffffffffffffffffffffffffffff168273ffffffffffffffffffffffffffffffffffffffff167f26956165eaa6777a212b5d0c1cec18d79a049f66dda236633ebbe2c7ad06a59060405160405180910390a35050565b6114b3816040805190810160405280600781526020017f6d616368696e65000000000000000000000000000000000000000000000000008152506117cb565b8073ffffffffffffffffffffffffffffffffffffffff167f8ca32c2de4b9f60a1a8d2cd6e9796b88c247751034e778e9684123092572623d60405160405180910390a250565b611538816040805190810160405280600781526020017f6d616368696e6500000000000000000000000000000000000000000000000000815250611697565b8073ffffffffffffffffffffffffffffffffffffffff167f3ebad29751e4a23ef75896f2a074f970896a10b8b6ec5a8c0280d759ab94100760405160405180910390a250565b6115bd816040805190810160405280600581526020017f61646d696e0000000000000000000000000000000000000000000000000000008152506117cb565b6115fc826040805190810160405280600581526020017f61646d696e000000000000000000000000000000000000000000000000000000815250611697565b7f101b8081ff3b56bbf45deb824d86a3b0fd38b7e3dd42421105cf8abe9106db0b8282604051808373ffffffffffffffffffffffffffffffffffffffff1673ffffffffffffffffffffffffffffffffffffffff1681526020018273ffffffffffffffffffffffffffffffffffffffff1673ffffffffffffffffffffffffffffffffffffffff1681526020019250505060405180910390a15050565b611714826000836040518082805190602001908083835b6020831015156116d357805182526020820191506020810190506020830392506116ae565b6001836020036101000a03801982511681845116808217855250505050505090500191505090815260200160405180910390206118ff90919063ffffffff16565b8173ffffffffffffffffffffffffffffffffffffffff167fd211483f91fc6eff862467f8de606587a30c8fc9981056f051b897a418df803a826040518080602001828103825283818151815260200191508051906020019080838360005b8381101561178d578082015181840152602081019050611772565b50505050905090810190601f1680156117ba5780820380516001836020036101000a031916815260200191505b509250505060405180910390a25050565b611848826000836040518082805190602001908083835b60208310151561180757805182526020820191506020810190506020830392506117e2565b6001836020036101000a038019825116818451168082178552505050505050905001915050908152602001604051809103902061195d90919063ffffffff16565b8173ffffffffffffffffffffffffffffffffffffffff167fbfec83d64eaa953f2708271a023ab9ee82057f8f3578d548c1a4ba0b5b700489826040518080602001828103825283818151815260200191508051906020019080838360005b838110156118c15780820151818401526020810190506118a6565b50505050905090810190601f1680156118ee5780820380516001836020036101000a031916815260200191505b509250505060405180910390a25050565b60008260000160008373ffffffffffffffffffffffffffffffffffffffff1673ffffffffffffffffffffffffffffffffffffffff16815260200190815260200160002060006101000a81548160ff0219169083151502179055505050565b60018260000160008373ffffffffffffffffffffffffffffffffffffffff1673ffffffffffffffffffffffffffffffffffffffff16815260200190815260200160002060006101000a81548160ff0219169083151502179055505050565b828054600181600116156101000203166002900490600052602060002090601f016020900481019282601f106119fc57805160ff1916838001178555611a2a565b82800160010185558215611a2a579182015b82811115611a29578251825591602001919060010190611a0e565b5b509050611a379190611af4565b5090565b828054600181600116156101000203166002900490600052602060002090601f016020900481019282601f10611a745780548555611ab1565b82800160010185558215611ab157600052602060002091601f016020900482015b82811115611ab0578254825591600101919060010190611a95565b5b509050611abe9190611af4565b5090565b815481835581811115611aef57600302816003028360005260206000209182019101611aee9190611b19565b5b505050565b611b1691905b80821115611b12576000816000905550600101611afa565b5090565b90565b611b7491905b80821115611b7057600080820160006101000a81549073ffffffffffffffffffffffffffffffffffffffff0219169055600182016000611b5f9190611b77565b600282016000905550600301611b1f565b5090565b90565b50805460018160011615610100020316600290046000825580601f10611b9d5750611bbc565b601f016020900490600052602060002090810190611bbb9190611af4565b5b505600a165627a7a723058205cb60875f2f311f5502745c3eb569d397ed4d2da687a6274d2988ada7bc4824f0029",
  "source": "pragma solidity ^0.4.21;\nimport \"openzeppelin-solidity/contracts/ECRecovery.sol\";\nimport \"openzeppelin-solidity/contracts/ownership/rbac/RBAC.sol\";\n\n\ncontract Chaos is RBAC {\n  using ECRecovery for bytes32;\n\n  struct Track {\n    address uploader;\n    string  cid;\n    uint256 block;\n  }\n\n  string public constant ROLE_ADMIN = \"admin\";\n  string public constant ROLE_MACHINE = \"machine\";\n  string public constant ROLE_TOKEN = \"token\";\n\n  Track[] public tracks;\n\n  event AdminUpdated(address oldAddress, address newAddress);\n\n  event MachineGranted(address indexed machine);\n  event MachineRevoked(address indexed machine);\n\n  event TokenGranted(address indexed token, address indexed machine);\n  event TokenRevoked(address indexed token);\n\n  event TrackAdded(string cid, address indexed uploader);\n  event TrackRemoved(string cid);\n\n  modifier onlyAdmin() {\n    checkRole(msg.sender, ROLE_ADMIN);\n    _;\n  }\n\n  modifier onlyMachine() {\n    checkRole(msg.sender, ROLE_MACHINE);\n    _;\n  }\n\n  constructor() public {\n\t\taddRole(msg.sender, ROLE_ADMIN);\n\t}\n\n  function updateAdmin(address _new) public onlyAdmin {\n    _updateAdmin(msg.sender, _new);\n  }\n\n  function grantMachine(address _machine) public onlyAdmin {\n    _grantMachine(_machine);\n  }\n\n  function revokeMachine(address _machine) public onlyAdmin {\n    _revokeMachine(_machine);\n  }\n\n  function grantToken(address _token) public onlyMachine {\n    _grantToken(_token, msg.sender);\n  }\n\n  function revokeToken(address _token) public onlyAdmin {\n    _revokeToken(_token);\n  }\n\n  function addTrack(bytes32 _hash, bytes _sig, string _cid) public {\n    address token = _hash.recover(_sig);\n    checkRole(token, ROLE_TOKEN);\n    tracks.push(Track(msg.sender, _cid, block.number));\n    _revokeToken(token);\n    emit TrackAdded(_cid, msg.sender);\n  }\n\n  function removeTrack(uint256 _index) public onlyAdmin {\n    require(tracks.length > 1 && _index < tracks.length, \"Invalid index\");\n    string memory cid = tracks[_index].cid;\n    Track storage last = tracks[tracks.length - 1];\n    tracks[_index] = last;\n    tracks.length--;\n    emit TrackRemoved(cid);\n  }\n\n  function shuffle() public view returns (string) {\n    uint index = uint(keccak256(abi.encodePacked(blockhash(block.number-1)))) % tracks.length;\n    return tracks[index].cid;\n  }\n\n  function _updateAdmin(address _old, address _new) private {\n    addRole(_new, ROLE_ADMIN);\n    removeRole(_old, ROLE_ADMIN);\n    emit AdminUpdated(_old, _new);\n  }\n\n  function _grantMachine(address _machine) private {\n    addRole(_machine, ROLE_MACHINE);\n    emit MachineGranted(_machine);\n  }\n\n  function _revokeMachine(address _machine) private {\n    removeRole(_machine, ROLE_MACHINE);\n    emit MachineRevoked(_machine);\n  }\n\n  function _grantToken(address _token, address _machine) private {\n    addRole(_token, ROLE_TOKEN);\n    emit TokenGranted(_token, _machine);\n  }\n\n  function _revokeToken(address _token) private {\n    removeRole(_token, ROLE_TOKEN);\n    emit TokenRevoked(_token);\n  }\n\n}\n",
  "sourcePath": "/Users/osarrouy/Documents/devs/dapps/@distributedgallery/@chaosmachine/packages/core/contracts/Chaos.sol",
  "compiler": {
    "name": "solc",
    "version": "0.4.24+commit.e67f0147.Emscripten.clang"
  },
  "schemaVersion": "2.0.1",
  "updatedAt": "2018-08-15T09:27:37.809Z"
}