{
  "contractName": "ChaosMachine",
  "abi": [
    {
      "constant": true,
      "inputs": [
        {
          "name": "_operator",
          "type": "address"
        },
        {
          "name": "_role",
          "type": "string"
        }
      ],
      "name": "checkRole",
      "outputs": [],
      "payable": false,
      "stateMutability": "view",
      "type": "function"
    },
    {
      "constant": true,
      "inputs": [
        {
          "name": "_operator",
          "type": "address"
        },
        {
          "name": "_role",
          "type": "string"
        }
      ],
      "name": "hasRole",
      "outputs": [
        {
          "name": "",
          "type": "bool"
        }
      ],
      "payable": false,
      "stateMutability": "view",
      "type": "function"
    },
    {
      "constant": true,
      "inputs": [],
      "name": "ROLE_MACHINE",
      "outputs": [
        {
          "name": "",
          "type": "string"
        }
      ],
      "payable": false,
      "stateMutability": "view",
      "type": "function"
    },
    {
      "constant": true,
      "inputs": [
        {
          "name": "",
          "type": "uint256"
        }
      ],
      "name": "slots",
      "outputs": [
        {
          "name": "uploader",
          "type": "address"
        },
        {
          "name": "cid",
          "type": "string"
        },
        {
          "name": "block",
          "type": "uint256"
        }
      ],
      "payable": false,
      "stateMutability": "view",
      "type": "function"
    },
    {
      "constant": true,
      "inputs": [],
      "name": "ROLE_USER",
      "outputs": [
        {
          "name": "",
          "type": "string"
        }
      ],
      "payable": false,
      "stateMutability": "view",
      "type": "function"
    },
    {
      "constant": true,
      "inputs": [
        {
          "name": "contractName",
          "type": "string"
        },
        {
          "name": "migrationId",
          "type": "string"
        }
      ],
      "name": "isMigrated",
      "outputs": [
        {
          "name": "",
          "type": "bool"
        }
      ],
      "payable": false,
      "stateMutability": "view",
      "type": "function"
    },
    {
      "constant": true,
      "inputs": [],
      "name": "ROLE_ADMIN",
      "outputs": [
        {
          "name": "",
          "type": "string"
        }
      ],
      "payable": false,
      "stateMutability": "view",
      "type": "function"
    },
    {
      "constant": true,
      "inputs": [],
      "name": "ROLE_BOUNCER",
      "outputs": [
        {
          "name": "",
          "type": "string"
        }
      ],
      "payable": false,
      "stateMutability": "view",
      "type": "function"
    },
    {
      "anonymous": false,
      "inputs": [
        {
          "indexed": false,
          "name": "formerAddress",
          "type": "address"
        },
        {
          "indexed": false,
          "name": "newAddress",
          "type": "address"
        }
      ],
      "name": "UpdateAdmin",
      "type": "event"
    },
    {
      "anonymous": false,
      "inputs": [
        {
          "indexed": false,
          "name": "addr",
          "type": "address"
        },
        {
          "indexed": false,
          "name": "machineID",
          "type": "uint256"
        }
      ],
      "name": "GrantBouncer",
      "type": "event"
    },
    {
      "anonymous": false,
      "inputs": [
        {
          "indexed": false,
          "name": "addr",
          "type": "address"
        }
      ],
      "name": "RevokeBouncer",
      "type": "event"
    },
    {
      "anonymous": false,
      "inputs": [
        {
          "indexed": false,
          "name": "addr",
          "type": "address"
        },
        {
          "indexed": false,
          "name": "machineID",
          "type": "uint256"
        }
      ],
      "name": "GrantUser",
      "type": "event"
    },
    {
      "anonymous": false,
      "inputs": [
        {
          "indexed": false,
          "name": "addr",
          "type": "address"
        }
      ],
      "name": "RevokeUser",
      "type": "event"
    },
    {
      "anonymous": false,
      "inputs": [
        {
          "indexed": false,
          "name": "user",
          "type": "address"
        },
        {
          "indexed": false,
          "name": "cid",
          "type": "string"
        }
      ],
      "name": "AddSlot",
      "type": "event"
    },
    {
      "anonymous": false,
      "inputs": [
        {
          "indexed": false,
          "name": "id",
          "type": "uint256"
        }
      ],
      "name": "RemoveSlot",
      "type": "event"
    },
    {
      "anonymous": false,
      "inputs": [
        {
          "indexed": true,
          "name": "operator",
          "type": "address"
        },
        {
          "indexed": false,
          "name": "role",
          "type": "string"
        }
      ],
      "name": "RoleAdded",
      "type": "event"
    },
    {
      "anonymous": false,
      "inputs": [
        {
          "indexed": true,
          "name": "operator",
          "type": "address"
        },
        {
          "indexed": false,
          "name": "role",
          "type": "string"
        }
      ],
      "name": "RoleRemoved",
      "type": "event"
    },
    {
      "anonymous": false,
      "inputs": [
        {
          "indexed": false,
          "name": "contractName",
          "type": "string"
        },
        {
          "indexed": false,
          "name": "migrationId",
          "type": "string"
        }
      ],
      "name": "Migrated",
      "type": "event"
    },
    {
      "constant": false,
      "inputs": [],
      "name": "initialize",
      "outputs": [],
      "payable": false,
      "stateMutability": "nonpayable",
      "type": "function"
    },
    {
      "constant": false,
      "inputs": [],
      "name": "updateAdmin",
      "outputs": [],
      "payable": false,
      "stateMutability": "nonpayable",
      "type": "function"
    },
    {
      "constant": false,
      "inputs": [
        {
          "name": "_machine",
          "type": "address"
        }
      ],
      "name": "grantMachine",
      "outputs": [],
      "payable": false,
      "stateMutability": "nonpayable",
      "type": "function"
    },
    {
      "constant": false,
      "inputs": [
        {
          "name": "_machine",
          "type": "address"
        }
      ],
      "name": "revokeMachine",
      "outputs": [],
      "payable": false,
      "stateMutability": "nonpayable",
      "type": "function"
    },
    {
      "constant": false,
      "inputs": [
        {
          "name": "_bouncer",
          "type": "address"
        }
      ],
      "name": "grantBouncer",
      "outputs": [],
      "payable": false,
      "stateMutability": "nonpayable",
      "type": "function"
    },
    {
      "constant": false,
      "inputs": [
        {
          "name": "_bouncer",
          "type": "address"
        }
      ],
      "name": "revokeBouncer",
      "outputs": [],
      "payable": false,
      "stateMutability": "nonpayable",
      "type": "function"
    },
    {
      "constant": false,
      "inputs": [
        {
          "name": "_hash",
          "type": "bytes32"
        },
        {
          "name": "_sig",
          "type": "bytes"
        }
      ],
      "name": "grantUser",
      "outputs": [],
      "payable": false,
      "stateMutability": "nonpayable",
      "type": "function"
    },
    {
      "constant": false,
      "inputs": [
        {
          "name": "_cid",
          "type": "string"
        }
      ],
      "name": "addSlot",
      "outputs": [],
      "payable": false,
      "stateMutability": "nonpayable",
      "type": "function"
    },
    {
      "constant": false,
      "inputs": [
        {
          "name": "_index",
          "type": "uint256"
        }
      ],
      "name": "removeSlot",
      "outputs": [],
      "payable": false,
      "stateMutability": "nonpayable",
      "type": "function"
    }
  ],
  "bytecode": "0x608060405234801561001057600080fd5b50611ddd806100206000396000f3006080604052600436106100f1576000357c0100000000000000000000000000000000000000000000000000000000900463ffffffff1680630988ca8c146100f657806310f264f11461017f578063217fe6c6146101f657806321b2d55d14610297578063387dd9e9146103275780636db11e1d1461040757806372c29e261461044a5780638129fc1c1461048d5780639850ce08146104a4578063ad153c77146104e7578063ae0183891461052a578063b941719e14610593578063c0bac1a814610623578063d391014b146106ea578063d3b2f5981461077a578063d466ab6b14610791578063ea3af0e014610821575b600080fd5b34801561010257600080fd5b5061017d600480360381019080803573ffffffffffffffffffffffffffffffffffffffff169060200190929190803590602001908201803590602001908080601f016020809104026020016040519081016040528093929190818152602001838380828437820191505050505050919291929050505061084e565b005b34801561018b57600080fd5b506101f46004803603810190808035600019169060200190929190803590602001908201803590602001908080601f01602080910402602001604051908101604052809392919081815260200183838082843782019150505050505091929192905050506108cf565b005b34801561020257600080fd5b5061027d600480360381019080803573ffffffffffffffffffffffffffffffffffffffff169060200190929190803590602001908201803590602001908080601f0160208091040260200160405190810160405280939291908181526020018383808284378201915050505050509192919290505050610a02565b604051808215151515815260200191505060405180910390f35b3480156102a357600080fd5b506102ac610a89565b6040518080602001828103825283818151815260200191508051906020019080838360005b838110156102ec5780820151818401526020810190506102d1565b50505050905090810190601f1680156103195780820380516001836020036101000a031916815260200191505b509250505060405180910390f35b34801561033357600080fd5b5061035260048036038101908080359060200190929190505050610ac2565b604051808473ffffffffffffffffffffffffffffffffffffffff1673ffffffffffffffffffffffffffffffffffffffff16815260200180602001838152602001828103825284818151815260200191508051906020019080838360005b838110156103ca5780820151818401526020810190506103af565b50505050905090810190601f1680156103f75780820380516001836020036101000a031916815260200191505b5094505050505060405180910390f35b34801561041357600080fd5b50610448600480360381019080803573ffffffffffffffffffffffffffffffffffffffff169060200190929190505050610bb3565b005b34801561045657600080fd5b5061048b600480360381019080803573ffffffffffffffffffffffffffffffffffffffff169060200190929190505050610c34565b005b34801561049957600080fd5b506104a2610cb5565b005b3480156104b057600080fd5b506104e5600480360381019080803573ffffffffffffffffffffffffffffffffffffffff1690602001909291905050506110c5565b005b3480156104f357600080fd5b50610528600480360381019080803573ffffffffffffffffffffffffffffffffffffffff169060200190929190505050611146565b005b34801561053657600080fd5b50610591600480360381019080803590602001908201803590602001908080601f01602080910402602001604051908101604052809392919081815260200183838082843782019150505050505091929192905050506111c7565b005b34801561059f57600080fd5b506105a8611318565b6040518080602001828103825283818151815260200191508051906020019080838360005b838110156105e85780820151818401526020810190506105cd565b50505050905090810190601f1680156106155780820380516001836020036101000a031916815260200191505b509250505060405180910390f35b34801561062f57600080fd5b506106d0600480360381019080803590602001908201803590602001908080601f0160208091040260200160405190810160405280939291908181526020018383808284378201915050505050509192919290803590602001908201803590602001908080601f0160208091040260200160405190810160405280939291908181526020018383808284378201915050505050509192919290505050611351565b604051808215151515815260200191505060405180910390f35b3480156106f657600080fd5b506106ff61143c565b6040518080602001828103825283818151815260200191508051906020019080838360005b8381101561073f578082015181840152602081019050610724565b50505050905090810190601f16801561076c5780820380516001836020036101000a031916815260200191505b509250505060405180910390f35b34801561078657600080fd5b5061078f611475565b005b34801561079d57600080fd5b506107a66114b6565b6040518080602001828103825283818151815260200191508051906020019080838360005b838110156107e65780820151818401526020810190506107cb565b50505050905090810190601f1680156108135780820380516001836020036101000a031916815260200191505b509250505060405180910390f35b34801561082d57600080fd5b5061084c600480360381019080803590602001909291905050506114ef565b005b6108cb826001836040518082805190602001908083835b60208310151561088a5780518252602082019150602081019050602083039250610865565b6001836020036101000a038019825116818451168082178552505050505050905001915050908152602001604051809103902061167690919063ffffffff16565b5050565b60006108e882846000191661168f90919063ffffffff16565b9050610929336040805190810160405280600481526020017f7573657200000000000000000000000000000000000000000000000000000000815250610a02565b15151561093557600080fd5b610974816040805190810160405280600781526020017f626f756e63657200000000000000000000000000000000000000000000000000815250610a02565b151561097f57600080fd5b6109be816040805190810160405280600781526020017f626f756e63657200000000000000000000000000000000000000000000000000815250611787565b6109fd336040805190810160405280600481526020017f75736572000000000000000000000000000000000000000000000000000000008152506118bb565b505050565b6000610a81836001846040518082805190602001908083835b602083101515610a405780518252602082019150602081019050602083039250610a1b565b6001836020036101000a03801982511681845116808217855250505050505090500191505090815260200160405180910390206119ef90919063ffffffff16565b905092915050565b6040805190810160405280600781526020017f6d616368696e650000000000000000000000000000000000000000000000000081525081565b600281815481101515610ad157fe5b90600052602060002090600302016000915090508060000160009054906101000a900473ffffffffffffffffffffffffffffffffffffffff1690806001018054600181600116156101000203166002900480601f016020809104026020016040519081016040528092919081815260200182805460018160011615610100020316600290048015610ba35780601f10610b7857610100808354040283529160200191610ba3565b820191906000526020600020905b815481529060010190602001808311610b8657829003601f168201915b5050505050908060020154905083565b610bf2336040805190810160405280600581526020017f61646d696e00000000000000000000000000000000000000000000000000000081525061084e565b610c31816040805190810160405280600781526020017f626f756e63657200000000000000000000000000000000000000000000000000815250611787565b50565b610c73336040805190810160405280600781526020017f6d616368696e650000000000000000000000000000000000000000000000000081525061084e565b610cb2816040805190810160405280600781526020017f626f756e636572000000000000000000000000000000000000000000000000008152506118bb565b50565b6040805190810160405280600c81526020017f4368616f734d616368696e6500000000000000000000000000000000000000008152506040805190810160405280600181526020017f3000000000000000000000000000000000000000000000000000000000000000815250610d60826040805190810160405280600b81526020017f696e697469616c697a6564000000000000000000000000000000000000000000815250611a48565b610d6a8282611a48565b610da9336040805190810160405280600581526020017f61646d696e0000000000000000000000000000000000000000000000000000008152506118bb565b7fdd117a11c22118c9dee4b5a67ce578bc44529dce21ee0ccc439588fbb9fb4ea38282604051808060200180602001838103835285818151815260200191508051906020019080838360005b83811015610e10578082015181840152602081019050610df5565b50505050905090810190601f168015610e3d5780820380516001836020036101000a031916815260200191505b50838103825284818151815260200191508051906020019080838360005b83811015610e76578082015181840152602081019050610e5b565b50505050905090810190601f168015610ea35780820380516001836020036101000a031916815260200191505b5094505050505060405180910390a160016000836040518082805190602001908083835b602083101515610eec5780518252602082019150602081019050602083039250610ec7565b6001836020036101000a0380198251168184511680821785525050505050509050019150509081526020016040518091039020826040518082805190602001908083835b602083101515610f555780518252602082019150602081019050602083039250610f30565b6001836020036101000a038019825116818451168082178552505050505050905001915050908152602001604051809103902060006101000a81548160ff02191690831515021790555060016000836040518082805190602001908083835b602083101515610fd95780518252602082019150602081019050602083039250610fb4565b6001836020036101000a03801982511681845116808217855250505050505090500191505090815260200160405180910390206040805190810160405280600b81526020017f696e697469616c697a65640000000000000000000000000000000000000000008152506040518082805190602001908083835b6020831015156110775780518252602082019150602081019050602083039250611052565b6001836020036101000a038019825116818451168082178552505050505050905001915050908152602001604051809103902060006101000a81548160ff0219169083151502179055505050565b611104336040805190810160405280600581526020017f61646d696e00000000000000000000000000000000000000000000000000000081525061084e565b611143816040805190810160405280600781526020017f6d616368696e65000000000000000000000000000000000000000000000000008152506118bb565b50565b611185336040805190810160405280600581526020017f61646d696e00000000000000000000000000000000000000000000000000000081525061084e565b6111c4816040805190810160405280600781526020017f6d616368696e6500000000000000000000000000000000000000000000000000815250611787565b50565b611206336040805190810160405280600481526020017f757365720000000000000000000000000000000000000000000000000000000081525061084e565b60026060604051908101604052803373ffffffffffffffffffffffffffffffffffffffff168152602001838152602001438152509080600181540180825580915050906001820390600052602060002090600302016000909192909190915060008201518160000160006101000a81548173ffffffffffffffffffffffffffffffffffffffff021916908373ffffffffffffffffffffffffffffffffffffffff16021790555060208201518160010190805190602001906112c8929190611bad565b5060408201518160020155505050611315336040805190810160405280600481526020017f7573657200000000000000000000000000000000000000000000000000000000815250611787565b50565b6040805190810160405280600481526020017f757365720000000000000000000000000000000000000000000000000000000081525081565b600080836040518082805190602001908083835b60208310151561138a5780518252602082019150602081019050602083039250611365565b6001836020036101000a0380198251168184511680821785525050505050509050019150509081526020016040518091039020826040518082805190602001908083835b6020831015156113f357805182526020820191506020810190506020830392506113ce565b6001836020036101000a038019825116818451168082178552505050505050905001915050908152602001604051809103902060009054906101000a900460ff16905092915050565b6040805190810160405280600581526020017f61646d696e00000000000000000000000000000000000000000000000000000081525081565b6114b4336040805190810160405280600581526020017f61646d696e00000000000000000000000000000000000000000000000000000081525061084e565b565b6040805190810160405280600781526020017f626f756e6365720000000000000000000000000000000000000000000000000081525081565b6000611530336040805190810160405280600581526020017f61646d696e00000000000000000000000000000000000000000000000000000081525061084e565b600160028054905011151561154457600080fd5b600260016002805490500381548110151561155b57fe5b906000526020600020906003020190508060028381548110151561157b57fe5b90600052602060002090600302016000820160009054906101000a900473ffffffffffffffffffffffffffffffffffffffff168160000160006101000a81548173ffffffffffffffffffffffffffffffffffffffff021916908373ffffffffffffffffffffffffffffffffffffffff16021790555060018201816001019080546001816001161561010002031660029004611617929190611c2d565b5060028201548160020155905050600280548091906001900361163a9190611cb4565b507f1c4a60276524f296324fb61621f9da4800b23d7ef7e154e8d1bffb1e33a30c5e826040518082815260200191505060405180910390a15050565b61168082826119ef565b151561168b57600080fd5b5050565b600080600080604185511415156116a9576000935061177e565b6020850151925060408501519150606085015160001a9050601b8160ff1610156116d457601b810190505b601b8160ff16141580156116ec5750601c8160ff1614155b156116fa576000935061177e565b600186828585604051600081526020016040526040518085600019166000191681526020018460ff1660ff1681526020018360001916600019168152602001826000191660001916815260200194505050505060206040516020810390808403906000865af1158015611771573d6000803e3d6000fd5b5050506020604051035193505b50505092915050565b611804826001836040518082805190602001908083835b6020831015156117c3578051825260208201915060208101905060208303925061179e565b6001836020036101000a0380198251168184511680821785525050505050509050019150509081526020016040518091039020611af190919063ffffffff16565b8173ffffffffffffffffffffffffffffffffffffffff167fd211483f91fc6eff862467f8de606587a30c8fc9981056f051b897a418df803a826040518080602001828103825283818151815260200191508051906020019080838360005b8381101561187d578082015181840152602081019050611862565b50505050905090810190601f1680156118aa5780820380516001836020036101000a031916815260200191505b509250505060405180910390a25050565b611938826001836040518082805190602001908083835b6020831015156118f757805182526020820191506020810190506020830392506118d2565b6001836020036101000a0380198251168184511680821785525050505050509050019150509081526020016040518091039020611b4f90919063ffffffff16565b8173ffffffffffffffffffffffffffffffffffffffff167fbfec83d64eaa953f2708271a023ab9ee82057f8f3578d548c1a4ba0b5b700489826040518080602001828103825283818151815260200191508051906020019080838360005b838110156119b1578082015181840152602081019050611996565b50505050905090810190601f1680156119de5780820380516001836020036101000a031916815260200191505b509250505060405180910390a25050565b60008260000160008373ffffffffffffffffffffffffffffffffffffffff1673ffffffffffffffffffffffffffffffffffffffff16815260200190815260200160002060009054906101000a900460ff16905092915050565b611a528282611351565b151515611aed576040517f08c379a00000000000000000000000000000000000000000000000000000000081526004018080602001828103825260328152602001807f52657175657374656420746172676574206d6967726174696f6e20494420686181526020017f7320616c7265616479206265656e2072756e000000000000000000000000000081525060400191505060405180910390fd5b5050565b60008260000160008373ffffffffffffffffffffffffffffffffffffffff1673ffffffffffffffffffffffffffffffffffffffff16815260200190815260200160002060006101000a81548160ff0219169083151502179055505050565b60018260000160008373ffffffffffffffffffffffffffffffffffffffff1673ffffffffffffffffffffffffffffffffffffffff16815260200190815260200160002060006101000a81548160ff0219169083151502179055505050565b828054600181600116156101000203166002900490600052602060002090601f016020900481019282601f10611bee57805160ff1916838001178555611c1c565b82800160010185558215611c1c579182015b82811115611c1b578251825591602001919060010190611c00565b5b509050611c299190611ce6565b5090565b828054600181600116156101000203166002900490600052602060002090601f016020900481019282601f10611c665780548555611ca3565b82800160010185558215611ca357600052602060002091601f016020900482015b82811115611ca2578254825591600101919060010190611c87565b5b509050611cb09190611ce6565b5090565b815481835581811115611ce157600302816003028360005260206000209182019101611ce09190611d0b565b5b505050565b611d0891905b80821115611d04576000816000905550600101611cec565b5090565b90565b611d6691905b80821115611d6257600080820160006101000a81549073ffffffffffffffffffffffffffffffffffffffff0219169055600182016000611d519190611d69565b600282016000905550600301611d11565b5090565b90565b50805460018160011615610100020316600290046000825580601f10611d8f5750611dae565b601f016020900490600052602060002090810190611dad9190611ce6565b5b505600a165627a7a723058206413fb12f3285bb1f6d3aeee72e278c4eb0b75a1006512e65c91c514a4ab148b0029",
  "source": "pragma solidity ^0.4.21;\nimport \"zos-lib/contracts/migrations/Migratable.sol\";\nimport \"openzeppelin-solidity/contracts/ECRecovery.sol\";\nimport \"openzeppelin-solidity/contracts/ownership/rbac/RBAC.sol\";\n\ncontract ChaosMachine is Migratable, RBAC {\n  using ECRecovery for bytes32;\n\n  struct Slot {\n    address uploader;\n    string  cid;\n    uint256 block;\n  }\n\n  string public constant ROLE_ADMIN = \"admin\";\n  string public constant ROLE_MACHINE = \"machine\";\n  string public constant ROLE_BOUNCER = \"bouncer\";\n  string public constant ROLE_USER = \"user\";\n\n  Slot[] public slots;\n\n  event UpdateAdmin(address formerAddress, address newAddress);\n\n  /* event GrantMachine(string name, address addr, uint256 id);\n  event RevokeMachine(string name, address addr); */\n\n  event GrantBouncer(address addr, uint256 machineID);\n  event RevokeBouncer(address addr);\n\n  event GrantUser(address addr, uint256 machineID);\n  event RevokeUser(address addr);\n\n  event AddSlot(address user, string cid);\n  event RemoveSlot(uint256 id);\n\n  modifier onlyAdmin() {\n    checkRole(msg.sender, ROLE_ADMIN);\n    _;\n  }\n\n  modifier onlyMachine() {\n    checkRole(msg.sender, ROLE_MACHINE);\n    _;\n  }\n\n  modifier onlyUser() {\n    checkRole(msg.sender, ROLE_USER);\n    _;\n  }\n\n  function initialize() isInitializer(\"ChaosMachine\", \"0\") public {\n    addRole(msg.sender, ROLE_ADMIN);\n  }\n\n  function updateAdmin() onlyAdmin public {\n\n  }\n\n  function grantMachine(address _machine) onlyAdmin public {\n    addRole(_machine, ROLE_MACHINE);\n  }\n\n  function revokeMachine(address _machine) onlyAdmin public {\n    removeRole(_machine, ROLE_MACHINE);\n  }\n\n  function grantBouncer(address _bouncer) onlyMachine public {\n    addRole(_bouncer, ROLE_BOUNCER);\n  }\n\n  function revokeBouncer(address _bouncer) onlyAdmin public {\n    removeRole(_bouncer, ROLE_BOUNCER);\n  }\n\n  function grantUser(bytes32 _hash, bytes _sig) public {\n    address bouncer = _hash.recover(_sig);\n    require(!hasRole(msg.sender, ROLE_USER));\n    require(hasRole(bouncer, ROLE_BOUNCER));\n    removeRole(bouncer, ROLE_BOUNCER);\n    addRole(msg.sender, ROLE_USER);\n  }\n\n  function addSlot(string _cid) onlyUser public {\n    slots.push(Slot(msg.sender, _cid, block.number));\n    removeRole(msg.sender, ROLE_USER);\n  }\n\n  function removeSlot(uint256 _index) onlyAdmin public {\n    require(slots.length > 1);\n    Slot storage last = slots[slots.length - 1];\n    slots[_index] = last;\n    slots.length--;\n    emit RemoveSlot(_index);\n  }\n\n\n\n/*\n  function randomGen(uint seed) constant returns (uint randomNumber) {\n        return(uint(sha3(block.blockhash(block.number-1), seed ))%100);\n    } */\n\n}\n",
  "sourcePath": "/Users/osarrouy/Documents/devs/dapps/@distributedgallery/@chaosmachine/core/contracts/ChaosMachine.sol",
  "compiler": {
    "name": "solc",
    "version": "0.4.24+commit.e67f0147.Emscripten.clang"
  },
  "schemaVersion": "2.0.1",
  "updatedAt": "2018-07-31T16:45:55.807Z"
}