{
  "contractName": "Chaos",
  "abi": [
    {
      "constant": true,
      "inputs": [
        {
          "name": "_operator",
          "type": "address"
        },
        {
          "name": "_role",
          "type": "string"
        }
      ],
      "name": "checkRole",
      "outputs": [],
      "payable": false,
      "stateMutability": "view",
      "type": "function"
    },
    {
      "constant": true,
      "inputs": [
        {
          "name": "_operator",
          "type": "address"
        },
        {
          "name": "_role",
          "type": "string"
        }
      ],
      "name": "hasRole",
      "outputs": [
        {
          "name": "",
          "type": "bool"
        }
      ],
      "payable": false,
      "stateMutability": "view",
      "type": "function"
    },
    {
      "constant": true,
      "inputs": [],
      "name": "ROLE_MACHINE",
      "outputs": [
        {
          "name": "",
          "type": "string"
        }
      ],
      "payable": false,
      "stateMutability": "view",
      "type": "function"
    },
    {
      "constant": true,
      "inputs": [],
      "name": "ROLE_TOKEN",
      "outputs": [
        {
          "name": "",
          "type": "string"
        }
      ],
      "payable": false,
      "stateMutability": "view",
      "type": "function"
    },
    {
      "constant": true,
      "inputs": [
        {
          "name": "",
          "type": "uint256"
        }
      ],
      "name": "tracks",
      "outputs": [
        {
          "name": "uploader",
          "type": "address"
        },
        {
          "name": "cid",
          "type": "string"
        },
        {
          "name": "block",
          "type": "uint256"
        }
      ],
      "payable": false,
      "stateMutability": "view",
      "type": "function"
    },
    {
      "constant": true,
      "inputs": [
        {
          "name": "contractName",
          "type": "string"
        },
        {
          "name": "migrationId",
          "type": "string"
        }
      ],
      "name": "isMigrated",
      "outputs": [
        {
          "name": "",
          "type": "bool"
        }
      ],
      "payable": false,
      "stateMutability": "view",
      "type": "function"
    },
    {
      "constant": true,
      "inputs": [],
      "name": "ROLE_ADMIN",
      "outputs": [
        {
          "name": "",
          "type": "string"
        }
      ],
      "payable": false,
      "stateMutability": "view",
      "type": "function"
    },
    {
      "anonymous": false,
      "inputs": [
        {
          "indexed": false,
          "name": "oldAddress",
          "type": "address"
        },
        {
          "indexed": false,
          "name": "newAddress",
          "type": "address"
        }
      ],
      "name": "AdminUpdated",
      "type": "event"
    },
    {
      "anonymous": false,
      "inputs": [
        {
          "indexed": true,
          "name": "machine",
          "type": "address"
        }
      ],
      "name": "MachineGranted",
      "type": "event"
    },
    {
      "anonymous": false,
      "inputs": [
        {
          "indexed": true,
          "name": "machine",
          "type": "address"
        }
      ],
      "name": "MachineRevoked",
      "type": "event"
    },
    {
      "anonymous": false,
      "inputs": [
        {
          "indexed": true,
          "name": "token",
          "type": "address"
        },
        {
          "indexed": true,
          "name": "machine",
          "type": "address"
        }
      ],
      "name": "TokenGranted",
      "type": "event"
    },
    {
      "anonymous": false,
      "inputs": [
        {
          "indexed": true,
          "name": "token",
          "type": "address"
        }
      ],
      "name": "TokenRevoked",
      "type": "event"
    },
    {
      "anonymous": false,
      "inputs": [
        {
          "indexed": false,
          "name": "cid",
          "type": "string"
        },
        {
          "indexed": true,
          "name": "uploader",
          "type": "address"
        }
      ],
      "name": "TrackAdded",
      "type": "event"
    },
    {
      "anonymous": false,
      "inputs": [
        {
          "indexed": false,
          "name": "cid",
          "type": "string"
        }
      ],
      "name": "TrackRemoved",
      "type": "event"
    },
    {
      "anonymous": false,
      "inputs": [
        {
          "indexed": true,
          "name": "operator",
          "type": "address"
        },
        {
          "indexed": false,
          "name": "role",
          "type": "string"
        }
      ],
      "name": "RoleAdded",
      "type": "event"
    },
    {
      "anonymous": false,
      "inputs": [
        {
          "indexed": true,
          "name": "operator",
          "type": "address"
        },
        {
          "indexed": false,
          "name": "role",
          "type": "string"
        }
      ],
      "name": "RoleRemoved",
      "type": "event"
    },
    {
      "anonymous": false,
      "inputs": [
        {
          "indexed": false,
          "name": "contractName",
          "type": "string"
        },
        {
          "indexed": false,
          "name": "migrationId",
          "type": "string"
        }
      ],
      "name": "Migrated",
      "type": "event"
    },
    {
      "constant": false,
      "inputs": [],
      "name": "initialize",
      "outputs": [],
      "payable": false,
      "stateMutability": "nonpayable",
      "type": "function"
    },
    {
      "constant": false,
      "inputs": [
        {
          "name": "_new",
          "type": "address"
        }
      ],
      "name": "updateAdmin",
      "outputs": [],
      "payable": false,
      "stateMutability": "nonpayable",
      "type": "function"
    },
    {
      "constant": false,
      "inputs": [
        {
          "name": "_machine",
          "type": "address"
        }
      ],
      "name": "grantMachine",
      "outputs": [],
      "payable": false,
      "stateMutability": "nonpayable",
      "type": "function"
    },
    {
      "constant": false,
      "inputs": [
        {
          "name": "_machine",
          "type": "address"
        }
      ],
      "name": "revokeMachine",
      "outputs": [],
      "payable": false,
      "stateMutability": "nonpayable",
      "type": "function"
    },
    {
      "constant": false,
      "inputs": [
        {
          "name": "_token",
          "type": "address"
        }
      ],
      "name": "grantToken",
      "outputs": [],
      "payable": false,
      "stateMutability": "nonpayable",
      "type": "function"
    },
    {
      "constant": false,
      "inputs": [
        {
          "name": "_token",
          "type": "address"
        }
      ],
      "name": "revokeToken",
      "outputs": [],
      "payable": false,
      "stateMutability": "nonpayable",
      "type": "function"
    },
    {
      "constant": false,
      "inputs": [
        {
          "name": "_hash",
          "type": "bytes32"
        },
        {
          "name": "_sig",
          "type": "bytes"
        },
        {
          "name": "_cid",
          "type": "string"
        }
      ],
      "name": "addTrack",
      "outputs": [],
      "payable": false,
      "stateMutability": "nonpayable",
      "type": "function"
    },
    {
      "constant": false,
      "inputs": [
        {
          "name": "_index",
          "type": "uint256"
        }
      ],
      "name": "removeTrack",
      "outputs": [],
      "payable": false,
      "stateMutability": "nonpayable",
      "type": "function"
    },
    {
      "constant": true,
      "inputs": [],
      "name": "shuffle",
      "outputs": [
        {
          "name": "",
          "type": "string"
        }
      ],
      "payable": false,
      "stateMutability": "view",
      "type": "function"
    }
  ],
  "bytecode": "0x608060405234801561001057600080fd5b50612286806100206000396000f3006080604052600436106100e6576000357c0100000000000000000000000000000000000000000000000000000000900463ffffffff1680630988ca8c146100eb578063217fe6c61461017457806321b2d55d146102155780632520bf04146102a5578063640a74be1461033557806379d3d547146103f25780637c9b032a146104355780638129fc1c146104c5578063933f4eef146104dc5780639850ce081461051f578063a2e3458614610562578063a93d79e714610642578063ad153c771461066f578063c0bac1a8146106b2578063d391014b14610779578063e2f273bd14610809575b600080fd5b3480156100f757600080fd5b50610172600480360381019080803573ffffffffffffffffffffffffffffffffffffffff169060200190929190803590602001908201803590602001908080601f016020809104026020016040519081016040528093929190818152602001838380828437820191505050505050919291929050505061084c565b005b34801561018057600080fd5b506101fb600480360381019080803573ffffffffffffffffffffffffffffffffffffffff169060200190929190803590602001908201803590602001908080601f01602080910402602001604051908101604052809392919081815260200183838082843782019150505050505091929192905050506108cd565b604051808215151515815260200191505060405180910390f35b34801561022157600080fd5b5061022a610954565b6040518080602001828103825283818151815260200191508051906020019080838360005b8381101561026a57808201518184015260208101905061024f565b50505050905090810190601f1680156102975780820380516001836020036101000a031916815260200191505b509250505060405180910390f35b3480156102b157600080fd5b506102ba61098d565b6040518080602001828103825283818151815260200191508051906020019080838360005b838110156102fa5780820151818401526020810190506102df565b50505050905090810190601f1680156103275780820380516001836020036101000a031916815260200191505b509250505060405180910390f35b34801561034157600080fd5b506103f06004803603810190808035600019169060200190929190803590602001908201803590602001908080601f0160208091040260200160405190810160405280939291908181526020018383808284378201915050505050509192919290803590602001908201803590602001908080601f0160208091040260200160405190810160405280939291908181526020018383808284378201915050505050509192919290505050610af4565b005b3480156103fe57600080fd5b50610433600480360381019080803573ffffffffffffffffffffffffffffffffffffffff169060200190929190505050610ce0565b005b34801561044157600080fd5b5061044a610d2c565b6040518080602001828103825283818151815260200191508051906020019080838360005b8381101561048a57808201518184015260208101905061046f565b50505050905090810190601f1680156104b75780820380516001836020036101000a031916815260200191505b509250505060405180910390f35b3480156104d157600080fd5b506104da610d65565b005b3480156104e857600080fd5b5061051d600480360381019080803573ffffffffffffffffffffffffffffffffffffffff169060200190929190505050611175565b005b34801561052b57600080fd5b50610560600480360381019080803573ffffffffffffffffffffffffffffffffffffffff1690602001909291905050506111c0565b005b34801561056e57600080fd5b5061058d6004803603810190808035906020019092919050505061120b565b604051808473ffffffffffffffffffffffffffffffffffffffff1673ffffffffffffffffffffffffffffffffffffffff16815260200180602001838152602001828103825284818151815260200191508051906020019080838360005b838110156106055780820151818401526020810190506105ea565b50505050905090810190601f1680156106325780820380516001836020036101000a031916815260200191505b5094505050505060405180910390f35b34801561064e57600080fd5b5061066d600480360381019080803590602001909291905050506112fc565b005b34801561067b57600080fd5b506106b0600480360381019080803573ffffffffffffffffffffffffffffffffffffffff16906020019092919050505061161f565b005b3480156106be57600080fd5b5061075f600480360381019080803590602001908201803590602001908080601f0160208091040260200160405190810160405280939291908181526020018383808284378201915050505050509192919290803590602001908201803590602001908080601f016020809104026020016040519081016040528093929190818152602001838380828437820191505050505050919291929050505061166a565b604051808215151515815260200191505060405180910390f35b34801561078557600080fd5b5061078e611755565b6040518080602001828103825283818151815260200191508051906020019080838360005b838110156107ce5780820151818401526020810190506107b3565b50505050905090810190601f1680156107fb5780820380516001836020036101000a031916815260200191505b509250505060405180910390f35b34801561081557600080fd5b5061084a600480360381019080803573ffffffffffffffffffffffffffffffffffffffff16906020019092919050505061178e565b005b6108c9826001836040518082805190602001908083835b6020831015156108885780518252602082019150602081019050602083039250610863565b6001836020036101000a03801982511681845116808217855250505050505090500191505090815260200160405180910390206117da90919063ffffffff16565b5050565b600061094c836001846040518082805190602001908083835b60208310151561090b57805182526020820191506020810190506020830392506108e6565b6001836020036101000a03801982511681845116808217855250505050505090500191505090815260200160405180910390206117f390919063ffffffff16565b905092915050565b6040805190810160405280600781526020017f6d616368696e650000000000000000000000000000000000000000000000000081525081565b6060600060028054905060014303406040516020018082600019166000191681526020019150506040516020818303038152906040526040518082805190602001908083835b6020831015156109f857805182526020820191506020810190506020830392506109d3565b6001836020036101000a038019825116818451168082178552505050505050905001915050604051809103902060019004811515610a3257fe5b069050600281815481101515610a4457fe5b90600052602060002090600302016001018054600181600116156101000203166002900480601f016020809104026020016040519081016040528092919081815260200182805460018160011615610100020316600290048015610ae95780601f10610abe57610100808354040283529160200191610ae9565b820191906000526020600020905b815481529060010190602001808311610acc57829003601f168201915b505050505091505090565b6000610b0d83856000191661184c90919063ffffffff16565b9050610b4e816040805190810160405280600581526020017f746f6b656e00000000000000000000000000000000000000000000000000000081525061084c565b60026060604051908101604052803373ffffffffffffffffffffffffffffffffffffffff168152602001848152602001438152509080600181540180825580915050906001820390600052602060002090600302016000909192909190915060008201518160000160006101000a81548173ffffffffffffffffffffffffffffffffffffffff021916908373ffffffffffffffffffffffffffffffffffffffff1602179055506020820151816001019080519060200190610c10929190612056565b5060408201518160020155505050610c2781611944565b3373ffffffffffffffffffffffffffffffffffffffff167f07bf306360af58e0353a9d9f4c81cbd293c6c615b52416a5543a67cb964f328b836040518080602001828103825283818151815260200191508051906020019080838360005b83811015610ca0578082015181840152602081019050610c85565b50505050905090810190601f168015610ccd5780820380516001836020036101000a031916815260200191505b509250505060405180910390a250505050565b610d1f336040805190810160405280600781526020017f6d616368696e650000000000000000000000000000000000000000000000000081525061084c565b610d2981336119c9565b50565b6040805190810160405280600581526020017f746f6b656e00000000000000000000000000000000000000000000000000000081525081565b6040805190810160405280600581526020017f4368616f730000000000000000000000000000000000000000000000000000008152506040805190810160405280600181526020017f3000000000000000000000000000000000000000000000000000000000000000815250610e10826040805190810160405280600b81526020017f696e697469616c697a6564000000000000000000000000000000000000000000815250611a66565b610e1a8282611a66565b610e59336040805190810160405280600581526020017f61646d696e000000000000000000000000000000000000000000000000000000815250611b0f565b7fdd117a11c22118c9dee4b5a67ce578bc44529dce21ee0ccc439588fbb9fb4ea38282604051808060200180602001838103835285818151815260200191508051906020019080838360005b83811015610ec0578082015181840152602081019050610ea5565b50505050905090810190601f168015610eed5780820380516001836020036101000a031916815260200191505b50838103825284818151815260200191508051906020019080838360005b83811015610f26578082015181840152602081019050610f0b565b50505050905090810190601f168015610f535780820380516001836020036101000a031916815260200191505b5094505050505060405180910390a160016000836040518082805190602001908083835b602083101515610f9c5780518252602082019150602081019050602083039250610f77565b6001836020036101000a0380198251168184511680821785525050505050509050019150509081526020016040518091039020826040518082805190602001908083835b6020831015156110055780518252602082019150602081019050602083039250610fe0565b6001836020036101000a038019825116818451168082178552505050505050905001915050908152602001604051809103902060006101000a81548160ff02191690831515021790555060016000836040518082805190602001908083835b6020831015156110895780518252602082019150602081019050602083039250611064565b6001836020036101000a03801982511681845116808217855250505050505090500191505090815260200160405180910390206040805190810160405280600b81526020017f696e697469616c697a65640000000000000000000000000000000000000000008152506040518082805190602001908083835b6020831015156111275780518252602082019150602081019050602083039250611102565b6001836020036101000a038019825116818451168082178552505050505050905001915050908152602001604051809103902060006101000a81548160ff0219169083151502179055505050565b6111b4336040805190810160405280600581526020017f61646d696e00000000000000000000000000000000000000000000000000000081525061084c565b6111bd81611944565b50565b6111ff336040805190810160405280600581526020017f61646d696e00000000000000000000000000000000000000000000000000000081525061084c565b61120881611c43565b50565b60028181548110151561121a57fe5b90600052602060002090600302016000915090508060000160009054906101000a900473ffffffffffffffffffffffffffffffffffffffff1690806001018054600181600116156101000203166002900480601f0160208091040260200160405190810160405280929190818152602001828054600181600116156101000203166002900480156112ec5780601f106112c1576101008083540402835291602001916112ec565b820191906000526020600020905b8154815290600101906020018083116112cf57829003601f168201915b5050505050908060020154905083565b6060600061133f336040805190810160405280600581526020017f61646d696e00000000000000000000000000000000000000000000000000000081525061084c565b6001600280549050118015611358575060028054905083105b15156113cc576040517f08c379a000000000000000000000000000000000000000000000000000000000815260040180806020018281038252600d8152602001807f496e76616c696420696e6465780000000000000000000000000000000000000081525060200191505060405180910390fd5b6002838154811015156113db57fe5b90600052602060002090600302016001018054600181600116156101000203166002900480601f0160208091040260200160405190810160405280929190818152602001828054600181600116156101000203166002900480156114805780601f1061145557610100808354040283529160200191611480565b820191906000526020600020905b81548152906001019060200180831161146357829003601f168201915b50505050509150600260016002805490500381548110151561149e57fe5b90600052602060002090600302019050806002848154811015156114be57fe5b90600052602060002090600302016000820160009054906101000a900473ffffffffffffffffffffffffffffffffffffffff168160000160006101000a81548173ffffffffffffffffffffffffffffffffffffffff021916908373ffffffffffffffffffffffffffffffffffffffff1602179055506001820181600101908054600181600116156101000203166002900461155a9291906120d6565b5060028201548160020155905050600280548091906001900361157d919061215d565b507f7b5b1a2eb010f1b15551a3637ca3ecc0de4874b023f4beafe54a15fb3d1c7739826040518080602001828103825283818151815260200191508051906020019080838360005b838110156115e05780820151818401526020810190506115c5565b50505050905090810190601f16801561160d5780820380516001836020036101000a031916815260200191505b509250505060405180910390a1505050565b61165e336040805190810160405280600581526020017f61646d696e00000000000000000000000000000000000000000000000000000081525061084c565b61166781611cc8565b50565b600080836040518082805190602001908083835b6020831015156116a3578051825260208201915060208101905060208303925061167e565b6001836020036101000a0380198251168184511680821785525050505050509050019150509081526020016040518091039020826040518082805190602001908083835b60208310151561170c57805182526020820191506020810190506020830392506116e7565b6001836020036101000a038019825116818451168082178552505050505050905001915050908152602001604051809103902060009054906101000a900460ff16905092915050565b6040805190810160405280600581526020017f61646d696e00000000000000000000000000000000000000000000000000000081525081565b6117cd336040805190810160405280600581526020017f61646d696e00000000000000000000000000000000000000000000000000000081525061084c565b6117d73382611d4d565b50565b6117e482826117f3565b15156117ef57600080fd5b5050565b60008260000160008373ffffffffffffffffffffffffffffffffffffffff1673ffffffffffffffffffffffffffffffffffffffff16815260200190815260200160002060009054906101000a900460ff16905092915050565b60008060008060418551141515611866576000935061193b565b6020850151925060408501519150606085015160001a9050601b8160ff16101561189157601b810190505b601b8160ff16141580156118a95750601c8160ff1614155b156118b7576000935061193b565b600186828585604051600081526020016040526040518085600019166000191681526020018460ff1660ff1681526020018360001916600019168152602001826000191660001916815260200194505050505060206040516020810390808403906000865af115801561192e573d6000803e3d6000fd5b5050506020604051035193505b50505092915050565b611983816040805190810160405280600581526020017f746f6b656e000000000000000000000000000000000000000000000000000000815250611e66565b8073ffffffffffffffffffffffffffffffffffffffff167f45f62f30e7b8439e0da7d8e560fe39d01238091ce9e789e3d12b514edf98acea60405160405180910390a250565b611a08826040805190810160405280600581526020017f746f6b656e000000000000000000000000000000000000000000000000000000815250611b0f565b8073ffffffffffffffffffffffffffffffffffffffff168273ffffffffffffffffffffffffffffffffffffffff167f26956165eaa6777a212b5d0c1cec18d79a049f66dda236633ebbe2c7ad06a59060405160405180910390a35050565b611a70828261166a565b151515611b0b576040517f08c379a00000000000000000000000000000000000000000000000000000000081526004018080602001828103825260328152602001807f52657175657374656420746172676574206d6967726174696f6e20494420686181526020017f7320616c7265616479206265656e2072756e000000000000000000000000000081525060400191505060405180910390fd5b5050565b611b8c826001836040518082805190602001908083835b602083101515611b4b5780518252602082019150602081019050602083039250611b26565b6001836020036101000a0380198251168184511680821785525050505050509050019150509081526020016040518091039020611f9a90919063ffffffff16565b8173ffffffffffffffffffffffffffffffffffffffff167fbfec83d64eaa953f2708271a023ab9ee82057f8f3578d548c1a4ba0b5b700489826040518080602001828103825283818151815260200191508051906020019080838360005b83811015611c05578082015181840152602081019050611bea565b50505050905090810190601f168015611c325780820380516001836020036101000a031916815260200191505b509250505060405180910390a25050565b611c82816040805190810160405280600781526020017f6d616368696e6500000000000000000000000000000000000000000000000000815250611b0f565b8073ffffffffffffffffffffffffffffffffffffffff167f8ca32c2de4b9f60a1a8d2cd6e9796b88c247751034e778e9684123092572623d60405160405180910390a250565b611d07816040805190810160405280600781526020017f6d616368696e6500000000000000000000000000000000000000000000000000815250611e66565b8073ffffffffffffffffffffffffffffffffffffffff167f3ebad29751e4a23ef75896f2a074f970896a10b8b6ec5a8c0280d759ab94100760405160405180910390a250565b611d8c816040805190810160405280600581526020017f61646d696e000000000000000000000000000000000000000000000000000000815250611b0f565b611dcb826040805190810160405280600581526020017f61646d696e000000000000000000000000000000000000000000000000000000815250611e66565b7f101b8081ff3b56bbf45deb824d86a3b0fd38b7e3dd42421105cf8abe9106db0b8282604051808373ffffffffffffffffffffffffffffffffffffffff1673ffffffffffffffffffffffffffffffffffffffff1681526020018273ffffffffffffffffffffffffffffffffffffffff1673ffffffffffffffffffffffffffffffffffffffff1681526020019250505060405180910390a15050565b611ee3826001836040518082805190602001908083835b602083101515611ea25780518252602082019150602081019050602083039250611e7d565b6001836020036101000a0380198251168184511680821785525050505050509050019150509081526020016040518091039020611ff890919063ffffffff16565b8173ffffffffffffffffffffffffffffffffffffffff167fd211483f91fc6eff862467f8de606587a30c8fc9981056f051b897a418df803a826040518080602001828103825283818151815260200191508051906020019080838360005b83811015611f5c578082015181840152602081019050611f41565b50505050905090810190601f168015611f895780820380516001836020036101000a031916815260200191505b509250505060405180910390a25050565b60018260000160008373ffffffffffffffffffffffffffffffffffffffff1673ffffffffffffffffffffffffffffffffffffffff16815260200190815260200160002060006101000a81548160ff0219169083151502179055505050565b60008260000160008373ffffffffffffffffffffffffffffffffffffffff1673ffffffffffffffffffffffffffffffffffffffff16815260200190815260200160002060006101000a81548160ff0219169083151502179055505050565b828054600181600116156101000203166002900490600052602060002090601f016020900481019282601f1061209757805160ff19168380011785556120c5565b828001600101855582156120c5579182015b828111156120c45782518255916020019190600101906120a9565b5b5090506120d2919061218f565b5090565b828054600181600116156101000203166002900490600052602060002090601f016020900481019282601f1061210f578054855561214c565b8280016001018555821561214c57600052602060002091601f016020900482015b8281111561214b578254825591600101919060010190612130565b5b509050612159919061218f565b5090565b81548183558181111561218a5760030281600302836000526020600020918201910161218991906121b4565b5b505050565b6121b191905b808211156121ad576000816000905550600101612195565b5090565b90565b61220f91905b8082111561220b57600080820160006101000a81549073ffffffffffffffffffffffffffffffffffffffff02191690556001820160006121fa9190612212565b6002820160009055506003016121ba565b5090565b90565b50805460018160011615610100020316600290046000825580601f106122385750612257565b601f016020900490600052602060002090810190612256919061218f565b5b505600a165627a7a7230582020564ef6abcd0608ef78da4765176463766d70e9d6a8bfc0ae5debc6018758230029",
  "source": "pragma solidity ^0.4.21;\nimport \"zos-lib/contracts/migrations/Migratable.sol\";\nimport \"openzeppelin-solidity/contracts/ECRecovery.sol\";\nimport \"openzeppelin-solidity/contracts/ownership/rbac/RBAC.sol\";\n\n\ncontract Chaos is Migratable, RBAC {\n  using ECRecovery for bytes32;\n\n  struct Track {\n    address uploader;\n    string  cid;\n    uint256 block;\n  }\n\n  string public constant ROLE_ADMIN = \"admin\";\n  string public constant ROLE_MACHINE = \"machine\";\n  string public constant ROLE_TOKEN = \"token\";\n\n  Track[] public tracks;\n\n  event AdminUpdated(address oldAddress, address newAddress);\n\n  event MachineGranted(address indexed machine);\n  event MachineRevoked(address indexed machine);\n\n  event TokenGranted(address indexed token, address indexed machine);\n  event TokenRevoked(address indexed token);\n\n  event TrackAdded(string cid, address indexed uploader);\n  event TrackRemoved(string cid);\n\n  modifier onlyAdmin() {\n    checkRole(msg.sender, ROLE_ADMIN);\n    _;\n  }\n\n  modifier onlyMachine() {\n    checkRole(msg.sender, ROLE_MACHINE);\n    _;\n  }\n\n  function initialize() public isInitializer(\"Chaos\", \"0\") {\n    addRole(msg.sender, ROLE_ADMIN);\n  }\n\n  function updateAdmin(address _new) public onlyAdmin {\n    _updateAdmin(msg.sender, _new);\n  }\n\n  function grantMachine(address _machine) public onlyAdmin {\n    _grantMachine(_machine);\n  }\n\n  function revokeMachine(address _machine) public onlyAdmin {\n    _revokeMachine(_machine);\n  }\n\n  function grantToken(address _token) public onlyMachine {\n    _grantToken(_token, msg.sender);\n  }\n\n  function revokeToken(address _token) public onlyAdmin {\n    _revokeToken(_token);\n  }\n\n  function addTrack(bytes32 _hash, bytes _sig, string _cid) public {\n    address token = _hash.recover(_sig);\n    checkRole(token, ROLE_TOKEN);\n    tracks.push(Track(msg.sender, _cid, block.number));\n    _revokeToken(token);\n    emit TrackAdded(_cid, msg.sender);\n  }\n\n  function removeTrack(uint256 _index) public onlyAdmin {\n    require(tracks.length > 1 && _index < tracks.length, \"Invalid index\");\n    string memory cid = tracks[_index].cid;\n    Track storage last = tracks[tracks.length - 1];\n    tracks[_index] = last;\n    tracks.length--;\n    emit TrackRemoved(cid);\n  }\n\n  function shuffle() public view returns (string) {\n    uint index = uint(keccak256(abi.encodePacked(blockhash(block.number-1)))) % tracks.length;\n    return tracks[index].cid;\n  }\n\n  function _updateAdmin(address _old, address _new) private {\n    addRole(_new, ROLE_ADMIN);\n    removeRole(_old, ROLE_ADMIN);\n    emit AdminUpdated(_old, _new);\n  }\n\n  function _grantMachine(address _machine) private {\n    addRole(_machine, ROLE_MACHINE);\n    emit MachineGranted(_machine);\n  }\n\n  function _revokeMachine(address _machine) private {\n    removeRole(_machine, ROLE_MACHINE);\n    emit MachineRevoked(_machine);\n  }\n\n  function _grantToken(address _token, address _machine) private {\n    addRole(_token, ROLE_TOKEN);\n    emit TokenGranted(_token, _machine);\n  }\n\n  function _revokeToken(address _token) private {\n    removeRole(_token, ROLE_TOKEN);\n    emit TokenRevoked(_token);\n  }\n\n}\n",
  "sourcePath": "/Users/osarrouy/Documents/devs/dapps/@distributedgallery/@chaosmachine/packages/core/contracts/Chaos.sol",
  "compiler": {
    "name": "solc",
    "version": "0.4.24+commit.e67f0147.Emscripten.clang"
  },
  "schemaVersion": "2.0.1",
  "updatedAt": "2018-08-14T14:35:51.817Z"
}